:100000000C94BF1E0C94FF1E0C94FF1E0C94FF1E3C
:100010000C94FF1E0C94FF1E0C94FF1E0C94FF1EEC
:100020000C94FF1E0C94FF1E0C94FF1E0C94FF1EDC
:100030000C94FF1E0C94FF1E0C94FF1E0C94FF1ECC
:100040000C94FF1E0C943FF30C94FF1E0C94FF1EA7
:100050000C94FF1E0C9439EE0C94FF1E0D94B852B4
:100060000C94FF1E0C9441530C9437530C94FF1EB8
:100070000C94FF1E0C94FF1E0C94FF1E0C94FF1E8C
:100080000C94E53C0C94FF1E0C94FF1E0C94FF1E78
:100090000C94FF1E0C94FF1E0C94FF1E0C94FF1E6C
:1000A0000C94FF1E0C94FF1E0C94B73C0C94FF1E86
:1000B0000C94FF1E0C94FF1E0C94FF1E0C94FF1E4C
:1000C0000C94FF1E0C94FF1E0C94FF1E0C94493DD3
:1000D0000C94133D0C94FF1E0C94FF1E0C94FF1EF9
:1000E0000C94FF1E084AD73B3BCE016E84BCBFFD7B
:1000F000C12F3D6C74319ABD56833DDA3D00C77FF8
:1001000011BED9E4BB4C3E916BAAAABE0000008090
:100110003F05A84CCDB2D44EB93836A9020C50B91F
:10012000918688083CA6AAAA2ABE000000803F004B
:100130000D94DB4C0D94A54C0D94C04C0D94AD2545
:100140000D94DA250D94FB4C0D940B5A0D94E25945
:100150000D94E34C0D94D14C0D94F74C0D94ED4C53
:100160000D94CB4C0D94DF4C0D94C84C0D94D54C94
:100170000D94F14C0D94AA4C0D94BC4C0D94E94C8B
:100180000D94C44C4E414E494E495459494E46CDAA
:10019000CCCC3D0AD7233C17B7D13877CC2B32953E
:1001A00095E6241FB14F0A000020410000C842001C
:1001B000401C4620BCBE4CCA1B0E5AAEC59D7400E6
:1001C000407A10F35A00A0724E18090010A5D4E826
:1001D0000000E87648170000E40B54020000CA9AB9
:1001E0003B000000E1F5050000809698000000400B
:1001F000420F000000A08601000000102700000050
:1002000000E803000000006400000000000A000095
:100210000000000100000000002C76D888DC674F49
:100220000823DFC1DFAE59E1B1B796E5E3E453C679
:100230003AE651997696E8E6C28426EB898C9B6271
:10024000ED407C6FFCEFBC9C9F40F2BAA56FA5F41B
:1002500090055A2AF75C936B6CF9676DC11BFCE043
:10026000E40D47FEF520E6B500D0ED902E03009496
:100270003577050080841E080000204E0A0000002B
:10028000C80C333333330F986E12831141EF8D2135
:1002900014893BE65516CFFEE6DB18D1844B381B9C
:1002A000F77C1D901DA4BBE424203284725E228161
:1002B00000C9F124ECA1E53D27434F4D4D554E4972
:1002C000434154494F4E0044525952554E004552F5
:1002D000524F525300494E464F004543484F00533A
:1002E000544F505045442E20005072696E74657210
:1002F0002073746F707065642064756520746F205E
:100300006572726F72732E2046697820746865205A
:100310006572726F7220616E6420757365204D394D
:10032000393920746F20726573746172742E2028BD
:1003300054656D70657261747572652069732072A1
:10034000657365742E20536574206974206166742A
:1003500065722072657374617274696E67290A0030
:100360004E6F20436865636B73756D2077697468A1
:10037000206C696E65206E756D6265722C204C6113
:100380007374204C696E653A20004E6F2043686597
:10039000636B73756D2077697468206C696E652076
:1003A0006E756D6265722C204C617374204C696EA1
:1003B000653A2000636865636B73756D206D6973C2
:1003C0006D617463682C204C617374204C696E6598
:1003D0003A20004C696E65204E756D626572206929
:1003E00073206E6F74204C617374204C696E6520AD
:1003F0004E756D6265722B312C204C617374204CEC
:10040000696E653A20004D31313000536572696183
:100410006C20737461747573206D69736D6174639E
:10042000680A0053442072656164206572726F72BD
:100430000A00486F74656E642049646C65205469D5
:100440006D656F757400486F74656E642049646CE7
:10045000652054696D656F75740A004B494C4C20DA
:10046000627574746F6E2F70696E0A002121204BC3
:10047000494C4C2063617573656420627920007477
:100480006F6F206D75636820696E6163746976654E
:100490002074696D65202D2063757272656E7420FD
:1004A000636F6D6D616E643A20002121204B494CD1
:1004B0004C2063617573656420627920004D36308D
:1004C00030002066696C616D656E745F72756E6F69
:1004D0007574200066696C616D656E745F72756E0F
:1004E0006F757420540046696C616D656E74527549
:1004F0006E6F75742054004D656469612052656D9E
:100500006F766564004D6564696120496E7365723C
:1005100074656400627573793A20706175736564FF
:1005200020666F7220696E7075740A006275737947
:100530003A2070617573656420666F72207573650B
:10054000720A00627573793A2070726F6365737313
:10055000696E670A00506C6561736520526573654A
:1005600074005052494E5445522048414C54454421
:100570000025533A20255300706F7765726F6666C9
:10058000004B494C4C45442E20005072696E7465F6
:10059000722068616C7465642E206B696C6C28290C
:1005A0002063616C6C6564210A006563686F3A00C2
:1005B0004572726F723A0042696C696E65617220B1
:1005C0004C6576656C696E6720477269643A0A000B
:1005D0005072696E74696E67204F626A6563740059
:1005E00025532025690020460020570020204D3249
:1005F000303720530020460020570020204D323055
:100600003820530020204D3230392053002F2F61E5
:100610006374696F6E3A006E6F74696669636174C2
:10062000696F6E200070726F6D70745F00656E642C
:1006300000486F74656E6420746F6F20636F6C6424
:100640000A0053656E64204D31303820746F20727B
:100650006573756D650A00496E736572742066690D
:100660006C616D656E7420616E642073656E6420CC
:100670004D3130380A0052656865617420446F6EF0
:100680006500526568656174696E672E2E2E005292
:100690006568656174004865617465722054696DB0
:1006A000656F75740053656E64204D313038207469
:1006B0006F2068656174206E6F7A7A6C650A004EEF
:1006C0006F7A7A6C65205061726B65640070617539
:1006D000736564005061757365004732362043616D
:1006E0006E63656C656400473236204865617469E5
:1006F0006E67204E6F7A7A6C650047323620486507
:100700006174696E67204265640057616974696E3F
:100710006720666F72206865617475702E0A0046E6
:1007200069786564204C656E677468205072696DE5
:100730006500446F6E65205072696D696E67004D8B
:10074000616E75616C207072696D696E672E2E2EF8
:10075000004C656176696E6720473236003F537002
:100760006563696669656420582C5920636F6F72F0
:1007700064696E617465206F7574206F6620626FA6
:10078000756E64732E0A003F285229657065617486
:100790002076616C7565206E6F7420706C61757366
:1007A00069626C653B206D757374206265206174AD
:1007B000206C6561737420312E0A003F53706563AD
:1007C0006966696564206E6F7A7A6C652074656D00
:1007D0007065726174757265206E6F7420706C61E3
:1007E000757369626C652E0A003F537065636966B4
:1007F0006965642066696C616D656E742073697AE1
:1008000065206E6F7420706C61757369626C652E03
:100810000A003F5370656369666965642070726998
:100820006D65206C656E677468206E6F7420706CE7
:1008300061757369626C652E0A003F537065636968
:1008400066696564206E6F7A7A6C652073697A6573
:10085000206E6F7420706C61757369626C652E0A0E
:10086000003F52657472616374696F6E204D756CE0
:100870007469706C696572206D757374206265208F
:100880007370656369666965642E0A003F5370651D
:100890006369666965642052657472616374696F27
:1008A0006E204D756C7469706C696572206E6F7422
:1008B00020706C61757369626C652E0A003F53701D
:1008C00065636966696564206C6179657220686535
:1008D00069676874206E6F7420706C6175736962EB
:1008E0006C652E0A0043292E0A003F537065636928
:1008F00066696564206265642074656D7065726107
:1009000074757265206E6F7420706C6175736962A6
:100910006C65202834302D004732362073746172A4
:1009200074696E672E2E2E0A004F46460A004661F5
:100930006465204865696768742000426564204CDE
:100940006576656C696E6720004661696C65642038
:10095000746F20656E61626C6520426564204C6531
:1009600076656C696E670A00496E76616C69642011
:100970006D6573682E0A004265642048656174697C
:100980006E672E2E2E005761697420666F7220628A
:1009900065642068656174696E672E2E2E0A0050AA
:1009A000726568656174696E672E2E2E0050726FD5
:1009B00062696E6720506F696E7400255320256947
:1009C0002F2569002E0A002F0050726F62696E6732
:1009D000206D65736820706F696E74200020284454
:1009E000525952554E2900473239204175746F20B3
:1009F000426564204C6576656C696E67003F20280F
:100A00004C2C522C462C4229206F7574206F662086
:100A1000626F756E64732E0A003F285629657262F4
:100A20006F7365206C6576656C20696D706C61759F
:100A30007369626C652028302D34292E0A004261CA
:100A400064205A2076616C75650A004E6F206269D9
:100A50006C696E65617220677269640A004465762C
:100A6000696174696F6E0025533A202573004669E9
:100A70006E6973686564210A003A207A3A20002082
:100A80006F662000476F696E6720746F3A205800C8
:100A900043570A00206469723A0020616E676C65F2
:100AA0003A005374617274207261646975733A001C
:100AB0004D343820506F696E740025533A202564F8
:100AC0002F256400506F736974696F6E696E6720BB
:100AD0007468652070726F62652E2E2E0A003F4C7E
:100AE000656773206F66206D6F76656D656E742027
:100AF000696D706C61757369626C652028302D3189
:100B000035292E0A003F2028582C5929206F75744A
:100B1000206F6620626F756E64732E0A0050726FCC
:100B20006265206F7574206F6620626F756E6473E6
:100B3000003F53616D706C652073697A65206E6F3C
:100B40007420706C61757369626C652028342D3572
:100B500030292E0A004D3438205A2D50726F6265AC
:100B6000205265706561746162696C6974792054A2
:100B70006573740A003F2856296572626F73652099
:100B80006C6576656C20696D706C61757369626CFB
:100B9000652028302D34292E0A005374616E64615B
:100BA000726420446576696174696F6E3A20002032
:100BB00052616E67653A2000204D61783A2000202E
:100BC0004D696E3A2000205369676D613A20004DEF
:100BD00065616E3A200020440020204D32303020E4
:100BE0005300202844697361626C6564293A0046A9
:100BF000696C616D656E742073657474696E67737A
:100C00000020204D3230312058004D617820416362
:100C100063656C65726174696F6E2028756E6974A6
:100C2000732F7332290020204D3230332058004D6D
:100C30006178206665656472617465732028756EDD
:100C40006974732F73290020520020204D323034F4
:100C5000205000416363656C65726174696F6E203A
:100C600028756E6974732F7332292028503C707276
:100C7000696E742D616363656C3E20523C726574CD
:100C8000726163742D616363656C3E20543C7472C1
:100C90006176656C2D616363656C3E29003F4A2077
:100CA0006F7574206F662072616E67652028302E24
:100CB000303120746F20302E33290A00204A002062
:100CC000540020530020204D323035204200416432
:100CD00076616E6365642028423C6D696E5F736562
:100CE000676D656E745F74696D655F75733E2053E3
:100CF0003C6D696E5F66656564726174653E205423
:100D00003C6D696E5F74726176656C5F6665656483
:100D1000726174653E204A3C6A756E635F646576F5
:100D20003E290020440020490020204D333031204E
:100D30005000486F74656E642050494400204400A0
:100D400020490020204D333034205000426564207B
:100D50005049440020580020204D61783A2000205E
:100D60000020204D696E3A2000203B200020204DBD
:100D7000323131205300536F667420656E64737492
:100D80006F707300203B0020550020204D3630331B
:100D9000204C0046696C616D656E74206C6F6164F7
:100DA0002F756E6C6F6164003B200020496E766188
:100DB0006C696420657874727564657220004732CE
:100DC0002F47332062616420706172616D657465C4
:100DD00072730A00536C6565702E2E2E005A2050D7
:100DE000726F62652050617374204265640A005A14
:100DF0002050726F626520506173742042656400F8
:100E00004732384C3000205A3A200020593A20000E
:100E100042656420583A20004D65736820706F6900
:100E20006E74206F7574206F662072616E67650A3C
:100E3000004D302053746F70004D312053746F702B
:100E400000436C69636B20746F20526573756D6528
:100E50002E2E2E004E6F204D6F76652E00456E644F
:100E60002066696C65206C6973740A004265676965
:100E70006E2066696C65206C6973740A004E6F2081
:100E80006D656469610A00526573756D696E6720EE
:100E9000534400286E6F2066696C652900437572A3
:100EA00072656E742066696C653A20005344207048
:100EB00072696E74696E67206279746520004E6F86
:100EC00074205344207072696E74696E670A002E34
:100ED0000A0044656C6574696F6E206661696C65B3
:100EE000642C2046696C653A200046696C65206474
:100EF000656C657465643A002569730025696D2029
:100F0000256973002569682025696D2025697300AE
:100F1000256964202569682025696D20256973008D
:100F200025697920256964202569682025696D2057
:100F3000256973005072696E742074696D653A207A
:100F4000007061757365006F6B006F666600DA0292
:100F5000D502CE02C702B90244454255473A004D78
:100F600031313320530054696D277320456E646519
:100F7000722D3520506C7573204F46462E002F2F52
:100F8000004D31343520533C696E6465783E206FE6
:100F90007574206F662072616E67652028302D3170
:100FA000290A0046523A0020466C6F773A20003AF0
:100FB000200020536572766F2000206F7574206FBB
:100FC000662072616E67650A00536572766F200055
:100FD00064697300656E0043290A0061626C656490
:100FE00020286D696E2074656D702000436F6C64FD
:100FF00020657874727564657320617265200042A3
:101000004C546F756368204853206D6F64652000F1
:101010004F4646004F4E00203B20486F73742068B7
:10102000616E646C696E67200046696C616D656E07
:10103000742072756E6F757420004D3432312069E2
:101040006E636F727265637420706172616D657436
:1010500065722075736167650A004D65736820705D
:101060006F696E74206F7574206F662072616E6791
:10107000650A00454550524F4D204F4B0A002E0A3D
:10108000002028302D313029002076616C756520D4
:101090006F7574206F662072616E676500416476BB
:1010A000616E6365204B3D004D3834585945005002
:1010B00072696E7420446F6E6500446F6E652070B7
:1010C00072696E74696E672066696C650A004D37D7
:1010D00037004D33310020204D3230362058004843
:1010E0006F6D65206F6666736574004F6666736525
:1010F0007473204170706C696564004572723A20A7
:10110000546F6F206661722100546F6F20666172A8
:101110002066726F6D207265666572656E6365200C
:10112000706F696E740A00446966663A2020200078
:1011300046726F6D5374703A0053746570706572C7
:101140003A00556E4C6576656C3A004C6576656C78
:1011500065643A005261773A20202020000A4C6FE3
:10116000676963616C3A00436F756E7420453A009D
:101170004361703A00434F4E4649475F4558504FD0
:101180005254004D4541545041434B00434F4F4C46
:1011900045525F54454D50455241545552450043C8
:1011A00048414D4245525F54454D5045524154557A
:1011B000524500424142595354455050494E470010
:1011C00041524353004D4F54494F4E5F4D4F44459C
:1011D0005300544845524D414C5F50524F54454383
:1011E00054494F4E00455854454E4445445F4D3296
:1011F0003000435553544F4D5F4649524D5741526D
:10120000455F55504C4F4144004C464E5F57524944
:101210005445004C4F4E475F46494C454E414D4565
:10122000004155544F5245504F52545F53445F5301
:1012300054415455530053445F575249544500524A
:101240004550454154004D554C54495F564F4C55FF
:101250004D45005344434152440050524F4D505469
:101260005F535550504F525400484F53545F4143C1
:1012700054494F4E5F434F4D4D414E445300454DF1
:10128000455247454E43595F5041525345520043E2
:101290004153455F4C494748545F4252494748547F
:1012A0004E45535300544F47474C455F4C494748C0
:1012B000545300534F4654574152455F504F574582
:1012C00052004255494C445F50455243454E5400EC
:1012D0004C4556454C494E475F44415441005A5F86
:1012E00050524F42450052554E4F555400415554AF
:1012F0004F4C4556454C005052494E545F4A4F4260
:101300000050524F4752455353004155544F524598
:10131000504F52545F54454D50004155544F524523
:10132000504F52545F504F5300564F4C554D4554FB
:1013300052494300454550524F4D0042494E41529B
:10134000595F46494C455F5452414E534645520001
:1013500053455249414C5F584F4E5F584F464600E7
:101360004649524D574152455F4E414D453A4D61B8
:10137000726C696E20322E3120284175672020382A
:1013800020323032322031303A33333A3439292066
:10139000534F555243455F434F44455F55524C3A76
:1013A0006769746875622E636F6D2F4D61726C6929
:1013B0006E4669726D776172652F4D61726C696EF0
:1013C0002050524F544F434F4C5F56455253494F54
:1013D0004E3A312E30204D414348494E455F5459D5
:1013E00050453A54696D277320456E6465722D35FA
:1013F00020506C75732045585452554445525F43F4
:101400004F554E543A3120555549443A3863643269
:10141000373665362D343163372D343433392D3832
:101420006634652D663138383533376562646163FB
:101430000A0020204D3235302043004C43442043E5
:101440006F6E74726173740050726F6265204F66C4
:1014500066736574205A0050726F6265204F66662D
:10146000736574205A00290A0020746F20003F5AC7
:10147000206F7574206F662072616E67652028008A
:10148000290A0020746F20003F59206F7574206F67
:10149000662072616E676520282D00290A0020747D
:1014A0006F20003F58206F7574206F662072616E48
:1014B000676520282D00203B0020204D3835312045
:1014C00058005A2D50726F6265204F6666736574BE
:1014D00000436F6F6C696E672E2E2E0045312025FC
:1014E000530042656420436F6F6C696E672E2E2E29
:1014F000004265642048656174696E672E2E2E0077
:1015000023646566696E652044454641554C545FC9
:101510000000626564004B6420004B6920004B7042
:1015200020005049442074756E696E6720646F6EA8
:1015300065002066696E6973686564212050757462
:1015400020746865206C617374204B702C204B698B
:1015500020616E64204B6420636F6E7374616E74DF
:10156000732066726F6D2062656C6F7720696E7490
:101570006F20436F6E66696775726174696F6E2E56
:10158000680A00504944204175746F74756E650097
:10159000206661696C6564212074696D656F75747E
:1015A0000A00504944204175746F74756E6500419E
:1015B00075746F74756E65206661696C6564212051
:1015C00054696D656F75742E00206661696C656481
:1015D000212054656D706572617475726520746F39
:1015E0006F20686967680A00504944204175746F2C
:1015F00074756E6500504944204379636C657300CF
:1016000025532025692F256900204B643A200020AE
:101610004B693A2000204B703A200020436C6173E4
:1016200073696320504944200A00204E6F206F7672
:10163000657273686F6F740A002054753A20002039
:101640004B753A2000206D61783A2000206D696E5C
:101650003A200020643A200020626961733A200039
:1016600048656174696E672E2E2E00207374617256
:10167000740A00504944204175746F74756E65009A
:101680004175746F74756E65206661696C6564215F
:101690002054656D706572617475726520746F6F2A
:1016A00020686967682E00206661696C6564212086
:1016B00054656D706572617475726520746F6F200A
:1016C000686967680A00504944204175746F7475F1
:1016D0006E6500504944204175746F74756E6500E5
:1016E000206661696C6564212042616420686561DF
:1016F0007465722069640A00504944204175746F12
:1017000074756E65004572723A207574663820668D
:101710006F6E74206E6F7420696E697469616C6994
:101720007A65642E004572723A20757466382066B8
:101730006F6E74206E6F7420696E697469616C6974
:101740007A65642E004572723A2075746638206698
:101750006F6E74206E6F7420696E697469616C6954
:101760007A65642E002568753A2530326875002543
:10177000303268753A253032687500253032687528
:101780002725303268750025687564202530326859
:10179000753A253032687500FFE0FFD140A0C8A639
:1017A000A22FF80023AC00AF10FFFEFF05FFD0FF13
:1017B000E0FFC1FFD1E240A0C8A6A22FF80023811C
:1017C00027AC00AFFFD0FF64FFD1A5FFD0FF64FFBF
:1017D00064FFD1A4FFD0FF16FFFE000C0F00FE0730
:1017E000022503BB017FFE08FE08FE05080806006F
:1017F0000040F0C88888987810050808060000C0E6
:10180000F88888888888F80505050600012030F8E2
:1018100030200508080600002070F820202020E075
:101820000509090600FF2070A8A8B888887020075D
:101830000505070001D86C366CD80509090600FFBC
:10184000F8A88888888888A8F8050A0A0600FE2073
:101850005050505088A8A888700303030600034026
:10186000A040FFFFFFFFFFFFFFFFFFFFFFFFFFFFA6
:10187000FFFFFFFFFFFFFFFF0000000605FF01075E
:101880000706020080808080800080030303060139
:1018900005A0A0A005060606000050F85050F8501C
:1018A0000509090600FF2070A8A07028A87020056F
:1018B0000707060000C8C8102040989805070706CB
:1018C000000040A0A040A890680103030602058024
:1018D00080800309090601FF20404080808040404D
:1018E000200309090601FF8040402020204040805D
:1018F00005070706000020A8702070A82005050530
:101900000600012020F820200203030601FFC0404A
:1019100080050101060003F8020202060100C0C0B2
:101920000507070600000810102040408005070743
:10193000060000708898A8C8887003070706010091
:1019400040C040404040E00507070600007088089E
:10195000102040F8050707060000F8081030088836
:101960007005070706000010305090F810100507AA
:1019700007060000F880F0080888700507070600D1
:1019800000304080F0888870050707060000F808DE
:101990001010202020050707060000708888708836
:1019A00088700507070600007088887808106002B4
:1019B0000505060100C0C000C0C00206060601FF02
:1019C000C0C000C0408003050506010120408040E2
:1019D00020050303060002F800F8030505060101CF
:1019E00080402040800507070600007088102020F6
:1019F00000200507070600007088B8A8B8807005A9
:101A00000707060000708888F88888880507070699
:101A10000000F04848704848F005070706000070CD
:101A2000888080808870050707060000F0484848D5
:101A30004848F0050707060000F88080F08080F82D
:101A4000050707060000F88080F080808005070702
:101A500006000070888080988870050707060000DF
:101A6000888888F8888888030707060100E04040D6
:101A7000404040E0050707060000381010101090A5
:101A8000600507070600008890A0C0A090880507A1
:101A900007060000808080808080F8050707060028
:101AA0000088D8A8888888880507070600008888E5
:101AB000C8A8988888050707060000708888888865
:101AC0008870050707060000F08888F08080800590
:101AD000070706000070888888A890680507070631
:101AE0000000F08888F0A0908805070706000070C5
:101AF000888070088870050707060000F8202020FD
:101B000020202005070706000088888888888870BC
:101B100005070706000088888888505020050707B9
:101B200006000088888888A8A850050707060000D6
:101B3000888850205088880507070600008888504C
:101B400020202020050707060000F808102040800C
:101B5000F80309090601FFE080808080808080E032
:101B600005070706000080404020101008030909FF
:101B70000601FFE020202020202020E005030306AE
:101B800000052050880501010600FEF80303030646
:101B9000010580402005050506000070087888785A
:101BA0000507070600008080F0888888F005050595
:101BB000060000708080887005070706000008088E
:101BC00078888888780505050600007088F08070A0
:101BD000050707060000304840E040404005070781
:101BE0000600FE70888888780870050707060000E0
:101BF0008080F0888888880307070601004000C0BD
:101C0000404040E00409090601FE100030101010A9
:101C100010906005070706000080808890E090889B
:101C2000030707060100C04040404040E0050505AD
:101C3000060000D0A8A8A8A8050505060000B0C8A1
:101C40008888880505050600007088888870050763
:101C5000070600FEF0888888F080800507070600E8
:101C6000FE78888888780808050505060000B0C851
:101C700080808005050506000078807008F0050763
:101C8000070600002020F820202018050505060082
:101C900000888888986805050506000088888850AF
:101CA000200505050600008888A8A850050505063A
:101CB000000088502050880507070600FE888888A5
:101CC00050204080050505060000F8102040F8036C
:101CD00009090601FF2040404080404040200109A2
:101CE000090602FF8080808080808080800309094F
:101CF0000601FF804040402040404080050303062D
:101D0000000248A890FF554E4C4F41442046494C94
:101D1000414D454E54004C4F41442046494C414DA5
:101D2000454E540046494C414D454E542043484190
:101D30004E47450042656400456E636C6F73757273
:101D40006500202020202020200020202020004589
:101D50003A00523A00657272001FE02010201020F5
:101D60001010201020201020103030084004800374
:101D7000001FE03FF03FF03FF01FE01FE03FF03F6B
:101D8000F03FF00FC0078003003FFFF038007030D5
:101D9000FC3020FC102078102030102C00D02E3188
:101DA000D02F7BD02F7BD02E31D02C00D0203010E4
:101DB00020781020FC1030FC303800703FFFF03FDE
:101DC000FFF03800703186302387102787902F87E7
:101DD000D02F03D020301020781020781020301021
:101DE0002F03D02F87D02787902387103186303854
:101DF00000703FFFF01FFFF81FFFF80410400208BB
:101E000020020820041040082080104100104100EA
:101E10000820800410400000001FFFF81FFFF86337
:101E2000616E63656C005072696E742041626F72FE
:101E30007465640055492041626F72746564004D99
:101E4000323520500A4D323400526573756D65008D
:101E500055492050617573650050617573696E67EF
:101E60002E2E2E00726573756D65004D323400455F
:101E70004550524F4D2056657273696F6E20457202
:101E8000726F7200454550524F4D20496E6465781F
:101E9000204572726F7200454550524F4D2043529B
:101EA00043204572726F72003F0049676E6F726522
:101EB00000526573657400496E697469616C697A72
:101EC0006520454550524F4D0050726F6265205A53
:101ED000204F6666736574004C6F6164206D6D0001
:101EE000556E6C6F6164206D6D0046696C2E2044E8
:101EF00069612E004520696E206D6D5E330041647E
:101F000076616E6365204B004D33303320553120B0
:101F10004525692053256900504944204175746F57
:101F200074756E65202A005049442D44202A0050C3
:101F300049442D49202A005049442D50202A002090
:101F4000082046616374002008204D617800200855
:101F5000204D696E004F6666004F6E004175746FCC
:101F600074656D70004D696E2054726176656C20E9
:101F70005370656564004D696E2056656C6F6369CA
:101F80007479004D61782040205370656564004D80
:101F90006178204520416363656C004D6178205A6B
:101FA00020416363656C004D617820592041636373
:101FB000656C004D6178205820416363656C005466
:101FC000726176656C20416363656C005265747262
:101FD00061637420416363656C00416363656C00F9
:101FE0005A2050726F62652057697A61726400509E
:101FF000726F6265205A204F666673657400507276
:102000006F62652059204F66667365740050726F69
:1020100062652058204F66667365740040207374B3
:102020006570732F6D6D00416476616E6365642029
:1020300053657474696E6773003F0043616E636536
:102040006C00496E6974004D34323800496E697411
:1020500069616C697A6520454550524F4D0046696B
:102060006C616D656E740054656D70657261747538
:1020700072650053746570732F6D6D0050726F62DE
:1020800065204F666673657473004A756E63746984
:102090006F6E2044657600416363656C65726174A0
:1020A000696F6E004D617820537065656420286DFE
:1020B0006D2F73290053657420486F6D65204F663E
:1020C000667365747300436F6E66696775726174D9
:1020D000696F6E003F004E65787420436F726E65C5
:1020E0007200446F6E65004E6578740053746F72B1
:1020F000652053657474696E6773004C6F6164206A
:1021000053657474696E677300426564205472612C
:102110006D6D696E670050726F6265205A204F6660
:102120006673657400466164652048656967687414
:10213000004F6666004F6E00426564204C65766510
:102140006C696E67004C6576656C2042656400477B
:1021500032394E00473239004175746F20486F6D37
:1021600065004D6F74696F6E003F0043616E63657B
:102170006C204F626A656374004E4F0059455300EE
:1021800043616E63656C204F626A656374203D0035
:102190004D61696E00486967682053706565640029
:1021A00053572D4D6F64650053746F77004465700D
:1021B0006C6F790053656C662D54657374005265BD
:1021C00073657400556E7265747261637420560095
:1021D000556E726574722E206D6D00486F70206DA3
:1021E0006D0052657472616374205600526574729A
:1021F000616374206D6D004175746F2D526574724A
:1022000061637400426564004E6F7A7A6C650046C3
:10221000616E20537065656400436F6E6669677513
:10222000726174696F6E00526573746F72652044D9
:10223000656661756C7473004C6F616420536574DE
:1022400074696E67730053746F726520536574749C
:10225000696E67730050726568656174202420435D
:102260006F6E66004F6666004F6E0052756E6F753A
:10227000742053656E736F7200526574726163747B
:10228000004C434420436F6E747261737400424C7F
:10229000546F7563680050726F6265205A204F66F4
:1022A0006673657400416476616E6365642053658E
:1022B0007474696E6773004D61696E004D3730321A
:1022C00020542564004D363030204230205425649F
:1022D000004D373032203B2564004D3730312054DB
:1022E0002564004D373032004D373031004D3630E7
:1022F00030204230004D61696E00436F6E74696E2C
:102300007565004F6666004F6E0052756E6F75748E
:102310002053656E736F72005075726765206D6F24
:10232000726500524553554D45204F5054494F4E0C
:10233000533A005052494E542050415553454400A1
:1023400020204E6F7A7A6C653A20005061726B697A
:102350006E672E2E2E0000005761697420666F7222
:102360000066696C616D656E74206368616E676597
:1023700000746F2073746172740057616974206611
:102380006F720066696C616D656E7420756E6C6F3E
:10239000616400004E6F7A7A6C65206865617469CB
:1023A0006E6700506C6561736520776169742E2ECD
:1023B0002E0000507265737320627574746F6E0026
:1023C000746F2068656174206E6F7A7A6C650000A6
:1023D000496E736572742066696C616D656E740018
:1023E000616E6420707265737320627574746F6EB1
:1023F00000746F20636F6E74696E75650057616954
:102400007420666F720066696C616D656E74206C15
:102410006F61640000507265737320427574746F4D
:102420006E00746F20726573756D65207072696ED1
:102430007400005761697420666F72207072696E53
:102440007400746F20726573756D652E2E2E0000FA
:102450005761697420666F720066696C616D656EA4
:1024600074207075726765000056696F6C65740042
:10247000496E6469676F00426C75650047726565F7
:102480006E0059656C6C6F77004F72616E67650006
:1024900052656400576869746500427269676874C0
:1024A0006E65737300426C756520496E74656E735A
:1024B00069747900477265656E20496E74656E7344
:1024C0006974790052656420496E74656E7369742D
:1024D00079004C454420436F6E74726F6C004375F5
:1024E00073746F6D204C6967687473004C6967681A
:1024F0007420507265736574730044656661756C11
:1025000074004F6666004F6E004C69676874730014
:102510004D61696E003F004261636B0053746F70E0
:10252000004E6F204D65646961005072696E7420C1
:1025300066726F6D204D65646961004368616E6706
:1025400065204D65646961004D3231004C696768F2
:102550007473004368616E67652046696C616D65E0
:102560006E7400436F6E66696775726174696F6E31
:102570000054656D7065726174757265004D6F749D
:10258000696F6E00526573756D65205072696E7467
:102590000043616E63656C204F626A65637400542A
:1025A000756E650053746F70205072696E740050C0
:1025B00061757365205072696E7400496E666F2094
:1025C00053637265656E003F0053746172742050EE
:1025D00072696E740043616E63656C005072696E5F
:1025E000740043616E6E6F7420656E746572207343
:1025F00075626469723A200002202E2E004D6169D6
:102600006E002100486F74656E6420746F6F2063E4
:102610006F6C64004261636B0050726F6365656448
:10262000004732385A004732385900486F6D6520EC
:10263000400047323858004175746F20486F6D650F
:10264000004D6F74696F6E0044697361626C652040
:102650005374657070657273004D3834004D3438B2
:102660002050726F62652054657374004732384F92
:102670000A4D34382050313000426564204C657674
:10268000656C696E6700486F6D696E67004D6169C2
:102690006E0043616E63656C00446F6E65004D6F44
:1026A000766520246D6D00302E303235004D6F760A
:1026B0006520302E316D6D004D6F766520316D6D6A
:1026C0000050726F6265205A204F66667365740011
:1026D0005A004D6F7665204E6F7A7A6C6520746F64
:1026E00020426564004D6F76696E6720746F2050DC
:1026F000726F62696E6720506F7300486F6D696E0C
:10270000672058595A004732380050726568656131
:1027100074202420426564005072656865617420ED
:102720002420456E640054656D7065726174757225
:102730006500436F6F6C646F776E005072656865FB
:10274000617420240046616E205370656564004208
:102750006564004E6F7A7A6C65004D61696E005059
:10276000726F6265205A204F66667365740041641B
:1027700076616E6365204B00466C6F770046616E34
:1027800020537065656400426564004E6F7A7A6C10
:1027900065005370656564004D61696E00486F6D3A
:1027A000696E67204661696C6564006F70656E00D4
:1027B000545249474745524544003A200066696CE7
:1027C000616D656E74007A5F6D696E00795F6D6131
:1027D0007800785F6D6178005265706F7274696E11
:1027E0006720656E6473746F7020737461747573A1
:1027F0000A00583A0020746F6F206C6F6E67206576
:102800007874727573696F6E2070726576656E7418
:1028100065640A0020636F6C642065787472757358
:10282000696F6E2070726576656E7465640A004823
:102830006F6D652025732573257320466972737447
:10284000000000B7430080B84300000000576172E9
:102850006E696E673A20486F6D696E672042756DCC
:10286000702044697669736F72203C20310A00023F
:1028700002040000B3430000B9430080CA430000D3
:10288000A0400000A0400000804053544F505045ED
:10289000442E20005072696E7465722073746F70DC
:1028A0007065642064756520746F206572726F7244
:1028B000732E2046697820746865206572726F7285
:1028C00020616E6420757365204D39393920746F2D
:1028D00020726573746172742E202854656D706562
:1028E0007261747572652069732072657365742EE8
:1028F0002053657420697420616674657220726566
:102900007374617274696E67290A00206572726F50
:1029100072202D20726573746172742077697468F7
:10292000204D3939390A00424C546F7563680021D3
:10293000212053544F502063616C6C6564206265A4
:102940006361757365206F6620000000B7430080E7
:10295000B8430080CA4300000041000080BF00006F
:10296000000053657474696E67732053746F7265E9
:102970006400290A002062797465733B20637263E6
:10298000200053657474696E67732053746F7265A9
:102990006420280048617264636F64656420446544
:1029A0006661756C742053657474696E6773204C2E
:1029B0006F616465640020286D6D2900203B204C08
:1029C0006576656C696E67200020204D34323020BA
:1029D00053004175746F20426564204C6576656CC8
:1029E000696E670020460020420020480020204DEC
:1029F0003134352053004D6174657269616C206813
:102A0000656174757020706172616D657465727353
:102A100000526574726163742028533C6C656E6764
:102A200074683E20463C66656564726174653E204C
:102A30005A3C6C6966743E29005265636F76657214
:102A40002028533C6C656E6774683E20463C666582
:102A50006564726174653E29004175746F2D52651D
:102A600074726163742028533C656E61626C653ECC
:102A7000290020204D393030204B004C696E6561B3
:102A80007220416476616E636500203B2053656E61
:102A9000736F72200020204D34313220530046697C
:102AA0006C616D656E742072756E6F7574207365E0
:102AB0006E736F7200204A00202047323920572061
:102AC000490020204D3134392043203B20556E6988
:102AD000747320696E2043656C736975730A0054C2
:102AE000656D706572617475726520556E69747379
:102AF000002020473231203B004C696E6561722016
:102B0000556E69747300454550524F4D2064617491
:102B10006173697A65206572726F722E0A00537450
:102B20006F7265642073657474696E677320726573
:102B30007472696576656400290A0020627974659B
:102B4000733B2063726320002073746F726564208E
:102B500073657474696E67732072657472696576E3
:102B60006564202800454550524F4D204352432074
:102B70004572726F7200202863616C63756C6174BA
:102B8000656429210A0020213D2000454550524F0F
:102B90004D20435243206D69736D61746368202D2D
:102BA000202873746F7265642920002053697A6548
:102BB0003A2000496E6465783A20000000FA45002A
:102BC00000FA450000704100606A460000A0420023
:102BD00000A042000048443D0ABA42881300008821
:102BE0001300006400000010270000454550524FBC
:102BF0004D2056657273696F6E204572726F720058
:102C0000204D61726C696E3D563836290A00454583
:102C100050524F4D2076657273696F6E206D6973E7
:102C20006D617463682028454550524F4D3D002426
:102C3000F4D43050C38E20C2A24017828B70111280
:102C40007A910D816CD90AA861E108C758660761BD
:102C50005143061E4B5D05C145A7041A41110409E5
:102C60003D9803713931034036DB0265339102D45C
:102C7000305402802E1D02632CEE01752AC501B06E
:102C800028A001102781018F2564012B244B01E02E
:102C9000223401AC211F018D200D01801FFC008416
:102CA0001EED00971DDF00B81CD200E61BC60020F9
:102CB0001BBC00641AB200B219A8000A19A0006A6D
:102CC000189900D117910040178B00B51684003178
:102CD000167E00B31579003A157300C7146F0058BB
:102CE000146A00EE1366008813630025135E00C7A4
:102CF000125B006C12570015125400C11151007084
:102D0000114F0021114B00D61049008D104700468D
:102D100010440002104200C00F4000800F3E0042ED
:102D20000F3C00060F3B00CB0E3800930E37005CC3
:102D30000E3500270E3400F30D3200C10D31009026
:102D40000D3000600D2E00320D2D00050D2C00D928
:102D50000C2B00AE0C2900850C29005C0C270035DB
:102D60000C27000E0C2600E80B2400C40B2400A046
:102D70000B23007D0B23005A0B2100390B21001877
:102D80000B2000F80A1F00D90A1E00BB0A1E009D76
:102D90000A1D00800A1D00630A1C00470A1B002C44
:102DA0000A1B00110A1A00F7091A00DD091900C4EC
:102DB000091900AB091900920917007B0918006373
:102DC0000917004C09160036091600200916000ADA
:102DD000091500F5081500E0081400CC081400B827
:102DE000081400A4081400900813007D0812006B5A
:102DF0000813005808120046081200340811002376
:102E00000811001208110001081100F0071000E07D
:102E1000071000D0071000C0071000B0070F00A176
:102E200007100091070E0083070F0074070F00655D
:102E3000070E0057070E0049070E003B070D002E36
:102E4000070E0020070D0013070D0006070D00F9FF
:102E5000060C00ED060D00E0060C00D4060C00C8C0
:102E6000060C00BC060C00B0060C00A4060B009972
:102E7000060C008D060B0082060B0077060B006C1B
:102E8000060B0061060A0057060B004C060A0042BA
:102E9000060A0038060A002E060A0024060A001A4E
:102EA000060A001006090007060A00FD050900F4DD
:102EB000050900EB050900E2050900D9050900D064
:102EC000050900C7050900BE050900B5050800ADE4
:102ED000050800A50509009C050800940508008C5C
:102EE000050800840508007C050800740508006CCE
:102EF000050700650508005D050700560508004E3A
:102F000005070047050700400508003805070031A0
:102F10000507002A050700230507001C0506001603
:102F20000507000F0507000805060002050700FB5E
:102F3000040600F5040700EE040600E8040600E2BB
:102F4000040700DB040600D5040600CF040600C910
:102F5000040600C3040600BD040600B7040600B161
:102F6000040500AC040600A6040600A00405009BAE
:102F700004060095040500900406008A04050085F7
:102F8000040500800406007A04050075040500703D
:102F90000405006B04050066040500610405005C7F
:102FA00004050057040500520405004D04050048BF
:102FB000040500430405003E0404003A04050035FE
:102FC000040500300404002C040500270404002339
:102FD0000405001E0404001A040400160405001170
:102FE0000404000D040400090405000404040000A6
:102FF000040400FC030400F8030400F4030400F0DC
:10300000030400EC030400E8030400E4030400E00C
:10301000030400DC030400D8030400D4030400D03C
:10302000030400CC030400C8030300C50303002409
:10303000F404D9201BC40C5C0E9804C4095F02651B
:10304000077101F405F900FB04B30048048700C1CF
:103050000369005803550003034500BE023A00848B
:1030600002310053022A002902250004022000E454
:10307000011C00C8011900AF011700980114008459
:10308000011300710110006101100051010E004395
:10309000010D0036010B002B010B0020010B001568
:1030A0000109000C01090003010800FB000800F3FE
:1030B000000800EB000700E4000600DE000600D870
:1030C000000600D2000600CC000500C7000500C2C3
:1030D000000500BD000400B9000400B5000400B103
:1030E000000400AD000400A9000400A5000300A234
:1030F0000003009F0004009B00030098000300955C
:1031000000020093000300900003008D0002008B7A
:103110000003008800020086000200840003008192
:103120000002007F0002007D0002007B00020079A7
:1031300000020077000100760002007400020072B5
:10314000000100710002006F0002006D0001006CC0
:103150000002006A000100690002006700010066C9
:1031600000010065000100640002006200010061CE
:10317000000100600001005F0002005D0001005CD2
:103180000001005B0001005A0001005900010058D5
:1031900000010057000100560001005500010054D5
:1031A00000010053000000530001005200010051D3
:1031B000000100500001004F0001004E0000004ED1
:1031C0000001004D0001004C0001004B0000004BCD
:1031D0000001004A000100490001004800000048C9
:1031E00000010047000100460000004600010045C4
:1031F00000000045000100440001004300000043BE
:1032000000010042000000420001004100000041B6
:10321000000100400001003F0000003F0001003EAF
:103220000000003E0001003D0000003D0001003CA8
:103230000000003C0000003C0001003B0000003B9F
:103240000001003A0000003A000100390000003996
:10325000000100380000003800000038000100378D
:103260000000003700010036000000360000003684
:103270000001003500000035000000350001003479
:10328000000000340000003400010033000000336F
:103290000000003300010032000000320000003264
:1032A0000001003100000031000000310001003059
:1032B00000000030000000300001002F0000002F4F
:1032C0000000002F0000002F0001002E0000002E43
:1032D0000000002E0001002D0000002D0000002D38
:1032E0000000002D0001002C0000002C0000002C2C
:1032F0000000002C0001002B0000002B0000002B20
:103300000000002B0001002A0000002A0000002A13
:103310000000002A00010029000000290000002907
:1033200000000029000000290001002800000028FA
:1033300000000028000000280000002800010027ED
:1033400000000027000000270000002700000027E1
:1033500000010026000000260000002600000026D4
:1033600000000026000100250000002500000025C7
:1033700000000025000000250000002500010024B9
:1033800000000024000000240000002400000024AD
:1033900000010023000000230000002300000023A0
:1033A0000000002300000023000000230001002291
:1033B0000000002200000022000000220000002285
:1033C0000000002200010021000000210000002177
:1033D0000000002100000021000000210000002169
:1033E000000100200000002000000020000000205C
:1033F000000000200000002000000020000000204D
:103400000001001F0000001F0000001F0000001F3F
:103410000000001F0000001F0000001F0001001E30
:103420000000001E0000001E0000001E000000C280
:103430003100001C260000F4190000D80F0000EB3A
:10344000080000C0040000750200004001000020D8
:10345000436F756E7420583A004265640045310030
:103460004500626564002C2073797374656D207368
:10347000746F7070656421204865617465725F497E
:10348000443A200048656174696E67204661696C42
:1034900065640048656174696E67206661696C6582
:1034A00064004D3131322053687574646F776E005B
:1034B0004572723A204D415854454D50004D415887
:1034C00054454D50207472696767657265640045A4
:1034D00072723A204D494E54454D50004D494E545C
:1034E000454D502074726967676572656400544881
:1034F00045524D414C2052554E4157415900546858
:1035000065726D616C2052756E6177617900202F54
:10351000002042403A0020403A0020573A0020570D
:103520003A002053004D313036205000496E76610C
:103530006C69642065787472756465720A007C3CFD
:103540003E5E2B3D3F2F5B5D3B2C2A225C0043619E
:103550006E6E6F74206F70656E2073756264697231
:1035600020004D6564696120496E69742046616977
:103570006C0053442063617264206F6B0A006F70AB
:10358000656E526F6F74206661696C65640A0076BF
:103590006F6C756D652E696E6974206661696C6506
:1035A000640A004E6F20534420636172640A000A6B
:1035B0004D3234004D3233202573002E0A006F70D7
:1035C000656E206661696C65642C2046696C653A9D
:1035D000200046696C652073656C65637465640AD8
:1035E000002053697A653A200046696C65206F7047
:1035F000656E65643A2000454E4420535542524F53
:103600005554494E450A002220706F7300222070E5
:103610006172656E743A2200535542524F555449B7
:103620004E452043414C4C207461726765743A22C8
:103630000053756263616C6C204F766572666C6FC7
:1036400077004578636565646564206D6178205313
:103650005542524F5554494E452064657074683A3E
:103660000057726974696E6720746F2066696C65B3
:103670003A2000667265736800646F696E670020A7
:1036800066696C653A20004E6F7720002F61757473
:103690006F25632E67004E594C4F4E004153410039
:1036A000414253005045544700504C412F5450550F
:1036B0000020453A00205A3A0020593A0020583A52
:1036C000006D61726C696E66772E6F726700322EC4
:1036D00031001FFFFFFFFFFFFF600000000001FF40
:1036E000400000000000FF8000000000007F83CF4A
:1036F00000000C303F87FF80000C301F867980006F
:103700000C000F8C30C7838C30E78C30CFC7CC31A6
:10371000F38C30DCECEC33B98C30D86C6C33198C16
:1037200030D06C0C33198C30D86C0C33198C30DCE5
:103730006C0E3B198C30CF7C079F198C30C77C03F3
:103740008F19400000000000026000000000000629
:103750001FFFFFFFFFFFF870012C0190012701B050
:10376000012201C0011D01F00118011002130130F6
:10377000020E016002090190020401C002FF000074
:1037800003FA004003F5008003F000D003EB0020B3
:1037900004E6007004E100E004DC004005D700C04E
:1037A00005D2004006CD00D006C8008007C3003017
:1037B00008BE00F008B900C009B400B00AAF00B0FC
:1037C0000BAA00D00CA500000EA000500F9B00C05B
:1037D0001096005012910000148C00C0158700B0A4
:1037E000178200B0197D00D01B7800001E730040C6
:1037F000206E0090226900F024640040275F009052
:10380000295A00E02B5500102E500020304B00109C
:10381000324600E033410090353C001037370070ED
:10382000383200A0392D00B03A2800A03B230060B8
:103830003C1E00103D1900903D1400103E0F00701A
:103840003E0A00C03E0500003F0000403FFBFF80F5
:103850003FF6FFC03FF1FF2020506C616E6E657235
:1038600042756666657242797465733A2000204637
:10387000726565204D656D6F72793A200020436F47
:103880006D70696C65643A2041756720203820327C
:103890003032320A00204C617374205570646174B8
:1038A00065643A20323032322D30362D3034207C6F
:1038B00020417574686F723A202863726963757469
:1038C0006D616E2C20437265616C69747920456E60
:1038D0006465722D3520506C7573290A004D617234
:1038E0006C696E20322E310A0020536F6674776146
:1038F00072652052657365740A00205761746368AD
:10390000646F672052657365740A002042726F7796
:103910006E206F75742052657365740A00204578B7
:103920007465726E616C2052657365740A00506F25
:1039300077657255700A0073746172740A004732B9
:10394000385859004D31303031006F6B006572725C
:103950006F722077726974696E6720746F20666970
:103960006C650A00446F6E6520736176696E67202E
:1039700066696C652E0A004D323900456E647374B9
:103980006F70730025532025632025632025632055
:10399000256300205A3A0020593A0020583A006521
:1039A0006E6473746F7073206869743A200000004D
:1039B0002100240027002A002D00300033000101DF
:1039C0000000040107010A0100000A0B02090C0DA6
:1039D0000E080703040100000000000000000000C2
:1039E00000000000000000000000000000000000D7
:1039F0000000000012111000000000000000000094
:103A000000000000000000000000000000004D6FFA
:103A1000766520246D6D00302E303235004D6F7686
:103A20006520302E316D6D004D6F766520316D6DE6
:103A3000004D6F76652031306D6D004D6F766520DD
:103A400041786973004D6F766520457874727564AE
:103A50006572004D6F7665205A004D6F766520596E
:103A6000004D6F7665205800A936A436A0369C36E6
:103A700096364368616E67652046696C616D656E58
:103A80007400556E6C6F61642046696C616D656E83
:103A900074004C6F61642046696C616D656E7400E2
:103AA0005072656865617420437573746F6D005062
:103AB0007265686561742024004261636B000101D6
:103AC000FF50726F62696E67204661696C65640AB7
:103AD0000050726F62696E67204661696C656400B0
:103AE000205A3A200020593A200042656420583A72
:103AF0002000BD36B936B536B136726573756D6561
:103B000064004469736D69737300526573756D6900
:103B10006E670073686F7700627574746F6E006211
:103B20006567696E0044697361626C6552756E6F9A
:103B300075740050757267654D6F726500506175E0
:103B400073656400436F6E74696E7565004C6F61D8
:103B5000642046696C616D656E74205400496E7313
:103B60006572742066696C616D656E7420616E6447
:103B70002073656E64204D3130380A00220A0055EA
:103B80006E6B6E6F776E20636F6D6D616E643A2041
:103B90002200204500205A0020590020204D3932B3
:103BA00020580053746570732070657220756E69BB
:103BB00074004572726F722077726974696E672043
:103BC000746F20454550524F4D210A00DB0FC93F0D
:103BD00045BCDA3F8FB30240FCF027405694614069
:103BE000FE4B9B4084A5D840E0231841346A5641DF
:103BF000E859974164DBD5416E271742B4B7554267
:103C0000CE1A9742C8AED542B5885A43D40684BF6F
:103C1000A65FA7BF7443E0BF10B11AC01C2C58C0E8
:103C2000E8F697C0B849D6C04E4E17C124D355C147
:103C3000802497C1A0B5D5C1121A17C244AE55C28F
:103C4000781797C26CACD5C267885AC320746F6F5F
:103C5000206C6F6E6720657874727573696F6E2063
:103C600070726576656E7465640A0020636F6C64BB
:103C700020657874727573696F6E207072657665F1
:103C80006E7465640A006F6B0A00526573656E643A
:103C90003A200054696D277320456E6465722D3596
:103CA00020506C75732052656164792E00507269E2
:103CB0006E74696E672E2E2E005072696E742050DD
:103CC0006175736564006E6F7469666963617469B8
:103CD0006F6E2000010210202008081020401020E4
:103CE00040800201020108040201010204081020C0
:103CF00040808040201008040201800402018040BE
:103D00002010080402010804020101020408102026
:103D1000408001020408102040800000220025009D
:103D200028002B002E0031003400020100000501A4
:103D300008010B010505050507050808080802022A
:103D400002020A0A08080404040401010101010135
:103D500001010303030303030303040707070C0C18
:103D60000C0C0C0C0C0C02020202060606060606DF
:103D700006060B0B0B0B0B0B0B0BA400A600112460
:103D80001FBECFEFD1E2DEBFCDBF00E00CBF84B7D6
:103D900080931A1814BE0FB6F894A895809160000D
:103DA000886180936000109260000FBE13E0A0E075
:103DB000B2E0E8E0FAEE02E00BBF02C007900D921D
:103DC000A83EB107D9F728E1A8EEB3E001C01D92E3
:103DD000AA31B207E1F71EE1CEEBDEE100E006C05A
:103DE00021970109802FFE010F949F71CD3BD107D0
:103DF00080E00807A9F70F94845B0D94F3740C948A
:103E00000000FC0184910895FC018081089590E0F8
:103E100080E00895CF93DF93C0918809D0918909FC
:103E200081E0CE31D105E4F020E030E040E05FE316
:103E30006091840970918509809186099091870924
:103E40000F94BA710F94FE726C1B7D0B77FF03C049
:103E500071956195710981E0633071050CF080E026
:103E6000DF91CF910895CF93DF93DB01F9019C910E
:103E70009130C1F0943080F094509C938830D1F40C
:103E800080819181009771F0019791838083480F21
:103E9000591FEA01188206C08C3539F49C5F9C9347
:103EA000943041F4DF91CF9108958B3339F781E05D
:103EB0008C93F8CF20813181B9016F5F7F4F71837F
:103EC0006083420F531FEA018883808191818F357F
:103ED00091056CF7E7CF0F931F9381E000912716B0
:103EE000109128162091291630912A1640912316F8
:103EF0005091241660912516709126160417150707
:103F00002607370708F480E01F910F91089590E08D
:103F100080E0089520912A06833021F425FD0CC00D
:103F200024FD0CC030E0A90102C0559547958A9543
:103F3000E2F7CA018170089581E0089580E0089554
:103F400080914A0684FD0BC080914C0687FD07C016
:103F500090914D06937081E019F480E0089581E01E
:103F60000895CF92DF92EF92FF92CF93DF93EC010F
:103F7000CC80DD80EE80FF8027E433E040E85FEB1B
:103F8000C701B6010F94E17387FD23C023E030E839
:103F900048EB53E4C701B6010F94D86A1816CCF069
:103FA000C880D980EA80FB802EE23FEF4FEF50E4DB
:103FB000C701B6010F94E17387FD0BC0C1E023E098
:103FC00030E047EB53E4C701B6010F94D86A1816E6
:103FD0000CF4C0E08C2FDF91CF91FF90EF90DF9039
:103FE000CF900895682F70E090E080E00F94DE6A33
:103FF00020916007309161074091620750916307FB
:104000000F943D6B20915307309154074091550711
:10401000509156070D94BA71682F70E090E080E0DF
:104020000F94DE6A20915C0730915D0740915E0736
:1040300050915F070F943D6B20914F0730915007CF
:1040400040915107509152070D94BA712FEB280FF0
:104050002A3108F047C0E22FF0E080914A069091A3
:104060004B06A0914C06B0914D0604C0B695A7959D
:10407000979587952A95D2F780FD02C081700895A3
:10408000E55DF94FE081EE2341F18091520A909174
:10409000530AE80FF92FF11D808190ED980F9A30A7
:1040A00030F08E3251F4818180538A3098F4F0934D
:1040B0002606E093250681E008958D3211F08B32BB
:1040C00049F4818190ED980F9A3088F38E3211F483
:1040D0008281EACFF0E0E0E0EACF1092260610926B
:1040E0002506E9CF80E00895B1DF882341F081E023
:1040F0002091250630912606232B09F480E00895AF
:1041000010924D0A85E08093D005089590914C0A55
:1041100010924C0A9230B1F09430B9F09130D9F449
:10412000882319F0813021F0089590934E0A089564
:1041300082E080934E0A80914D0A882361F01092AC
:104140005302DECF10924F0A08958BE69EE19093C2
:104150003D0980933C090895269A2E9A0895EF927E
:10416000FF920F931F93CF93DF93EC018B017A01A2
:104170008A859B858617970731F0888199810F94EE
:104180002D551B870A87B701888199810F94244791
:104190002E813F81820F932F911D9F838E8390E00C
:1041A00080E0DF91CF911F910F91FF90EF900895E4
:1041B0009F92AF92BF92CF92DF92EF92FF920F93B6
:1041C0001F93CF93DF93EC018B01942EA52E8A854C
:1041D0009B858617970731F0888199810F942D551B
:1041E0001B870A8788859985019649F5BC800A81D5
:1041F0008E81080FC880D980D6015596ED91FC912B
:10420000C6011995B80EE92CFA2C10E0F70121919E
:104210007F01211127C08E819F81810F911D9F8376
:104220008E8390E080E0DF91CF911F910F91FF90FE
:10423000EF90DF90CF90BF90AF909F9008950E8148
:104240001F81692D7A2D888199810F942447800FD1
:10425000912F911D288539852817390738F681E077
:1042600090E0E1CF4B2D602FC6010E9427E2080F9E
:10427000180FCCCFDF92EF92FF920F931F93CF9343
:10428000DF93EC01D62E1CAD0BAD7C0184E0E80E73
:10429000F11CE98DFA8DC7011995412F480F2D2D7D
:1042A000602FC7010E9427E29BAD890F8BAF81E091
:1042B00090E0DF91CF911F910F91FF90EF90DF90F1
:1042C0000895AF92BF92DF92EF92FF920F931F93E8
:1042D000CF93DF938C01EB01D42E79018FE0481747
:1042E00009F488C0A5E14A17C1F1BAE04B130EC02A
:1042F000EC81FD8130E020E042E061E0C8011995E9
:104300004DEA57E1BE01C8010E94A1E10A80DB81AC
:10431000C02DF2E3DF1609F4E4C0FD1508F493C0E4
:1043200085E1D81609F4E2C0A7E1DA1609F4FCC069
:10433000B4E1DB127DC0EE81FF818D8190E0880FBA
:10434000991F8E0F9F1F11928E179F07E1F71A82F8
:10435000888181508B831C826BC0AA80BB8048E916
:1043600057E1C8010E94A1E1F5014481440F406B6F
:10437000BE01C8010E9489E141E0BE01C8010E945E
:1043800091E1D50116962D913C911797EC81FD8115
:1043900015964C9166E0C801199540E0BE01C80130
:1043A0000E9499E148E957E1BE01C8010E94A1E1DC
:1043B000F5014481440F4F5F406BBE01C8010E946C
:1043C00089E141E0BE01C8010E9491E1D501159645
:1043D0004C91159716962D913C91240F311DEC812F
:1043E000FD8166E0C801199540E0BE01C8010E9448
:1043F00099E18CCF41E0C8010E9499E140E0BE0103
:10440000C8010E9491E141E8BE01C8010E9489E112
:10441000F701408150E05595479555954795BE0168
:10442000C8010E9489E140E0BE01C8010E9499E1F3
:1044300081E0DF91CF911F910F91FF90EF90DF907E
:10444000BF90AF900895E6E4DE1609F47CC0F7E46F
:10445000DF1609F47CC08BE3D812EACFD70111969E
:104460009C91119713968C9138E0390F813031F07F
:10447000833011F0392F02C0392F985021E04B8141
:10448000491708F420E041E0391708F040E091E0D6
:104490005A81351708F490E0322F342B932311F40E
:1044A000242331F2F701128100E0D12C843048F44A
:1044B00090E0FC01E953FD4FD0808D539D4FDC010E
:1044C0000C9117FF04C0B701CE010F940253F701FE
:1044D00080818D0D80838181800F8183110F89F709
:1044E000A7CFB701CE010F940253A2CF88819A8142
:1044F000980F9A832981921770F59C819F5F9C8306
:104500009B81890F821710F08FEF820F8B83EE81D2
:10451000FF818D8190E0880F991F8E0F9F1F119250
:104520008E179F07E1F784CFD7011C928A811196DD
:104530008C9311978D81815012968C9312978B8159
:1045400013968C9375CF8D81F701808371CF89810C
:10455000D7018C936DCF80E06CCF0F931F93809326
:104560002D02803208F046C090915D06891724F034
:1045700091E0980F90935D0641E050E0082E02C054
:10458000440F551F0A94E2F7052E000C660B770BBB
:104590000091590610915A0620915B0630915C06F5
:1045A000402351236223732391E0452B462B472B55
:1045B00009F490E09093F20F87FD1FC0282F082E7A
:1045C000000C330B3F938F9380ED95E09F938F9377
:1045D00080EE95E09F938F931F920E9479DB8DB7B9
:1045E0009EB707960FB6F8949EBF0FBE8DBF1F9162
:1045F0000F9108951092F20FDFCF1F910F910D943C
:10460000BB55CF93DF93C0918809D091890920973A
:1046100029F16091840970918509809186099091B2
:1046200087090F94FE726E5F7F4F24976C177D078A
:10463000ACF47093E9076093E8070F94CC4D605A8F
:1046400075418F4F9F4F6093EA077093EB078093FC
:10465000EC079093ED07DF91CF9108951092EA0750
:104660001092EB071092EC071092ED07F4CF63E085
:104670000D94DE550F931F93CF93DF9300D01F92BD
:10468000CDB7DEB79C010BE01AE090E1EFE7F2E076
:10469000D80101900D929A95E1F7F90120813181BD
:1046A00042815381F80160857185828593850F94DD
:1046B000BA71F801608771878287938780E090E004
:1046C000A0EAB0E489839A83AB83BC83CE010196D0
:1046D0000F94CF140F900F900F900F90DF91CF9108
:1046E0001F910F9108952F923F924F925F926F9278
:1046F0007F928F929F92AF92BF92CF92DF92EF9272
:10470000FF921F93CF93DF93CDB7DEB72C970FB6F1
:10471000F894DEBF0FBECDBF7A011901DC012D91E7
:104720003D914D915C912D833E834F835887FB01D2
:10473000408051806280738080907F0290908002E0
:10474000A0908102B0908202A50194016D817E81CA
:104750008F8198850F94D86A81110EC011E0A30152
:104760009201609183027091840280918502909100
:1047700086020F94D86A811110E0D1012D913D91EC
:104780004D915C9129873A874B875C87F701C08000
:10479000D180E280F38020910A0230910B02409197
:1047A0000C0250910D02C701B6010F94D86A8823FC
:1047B00009F44EC0C0920A02D0920B02E0920C02A1
:1047C000F0920D0280918B0290918C02A0918D024B
:1047D000B0918E02409183025091840260918502D3
:1047E0007091860280920B0A90920C0AA0920D0A98
:1047F000B0920E0A40930F0A5093100A6093110A68
:104800007093120AC092130AD092140AE092150A09
:10481000F092160A8093170A9093180AA093190A27
:10482000B0931A0A20E030E040E05FE3609120108E
:104830007091211080912210909123100F943D6B64
:1048400069837A838B839C83CE0101960F94CF1466
:104850002D813E814F81588520930B0A30930C0A9D
:1048600040930D0A50930E0A40920F0A5092100A7C
:104870006092110A7092120AD1012D913D914D91D1
:104880005C916091170A7091180A8091190A9091B1
:104890001A0A0F94BA716093170A7093180A8093DA
:1048A000190A90931A0A11112FC020E030E0A901D3
:1048B00069857A858B859C850F94D86A811133C070
:1048C00060E070E088EC92E469837A838B839C8358
:1048D000CE0101960F94CF142C960FB6F894DEBF3C
:1048E0000FBECDBFDF91CF911F91FF90EF90DF9072
:1048F000CF90BF90AF909F908F907F906F905F9080
:104900004F903F902F9008952AEF3EE74AE25FE3F1
:10491000609124107091251080912610909127109D
:104920000F943D6BD1CF60E070E080EA91E4CCCF92
:104930008F929F92AF92BF92CF92DF92EF92FF92AF
:10494000CF93DF9300D000D01F921F92CDB7DEB778
:1049500090910A0A981709F4CFC04091EA09509142
:10496000EB096091EC097091ED0990E1EFE7F2E05D
:10497000ABE0BAE001900D929A95E1F7C09020105B
:10498000D0902110E0902210F0902310CD82DE8292
:10499000EF82F886882309F451C040934B07509367
:1049A0004C0760934D0770934E078091EE099091EC
:1049B000EF09A091F009B091F10989839A83AB8343
:1049C000BC83CE0101960F94CF14C0904707D090BE
:1049D0004807E0904907F0904A0720E030E0A9013D
:1049E000C701B6010F94D86A811124C08090F209E2
:1049F0009090F309A090F409B090F5092AE037ED02
:104A000043E25CE3C501B4010F94E173181694F41A
:104A1000A5019401C701B6010F94BA7160934707CD
:104A2000709348078093490790934A07CE010596F3
:104A30000F94CF1481E080930A0A5EC020E030E03A
:104A4000A9016091470770914807809149079091AB
:104A50004A070F94D86A882361F010924707109292
:104A600048071092490710924A07CE0105960F9405
:104A7000CF14C090F609D090F709E090F809F090B3
:104A8000F90920E030E0A901C701B6010F94D86A06
:104A90008823C1F0A701960160918B0270918C026E
:104AA00080918D0290918E020F94B97160938B0268
:104AB00070938C0280938D0290938E028BE892E02B
:104AC0000F94020710924B0710924C0710924D075B
:104AD00010924E078091FA099091FB09A091FC0970
:104AE000B091FD0989839A83AB83BC83CE01019683
:104AF0000F94CF1410920A0A28960FB6F894DEBFCE
:104B00000FBECDBFDF91CF91FF90EF90DF90CF90A0
:104B1000BF90AF909F908F900895CF93DF9300D078
:104B20001F92CDB7DEB780E090E0A8E8B1E48983BA
:104B30009A83AB83BC8361E0CE0101960F94B90CDC
:104B40000F900F900F900F90DF91CF91089580916B
:104B5000250690912606009731F04AE050E070E07B
:104B600060E00D94F96860E070E0CB0108958091F9
:104B70005A0A82FF0BC063E68AED96E00E94E6C9FE
:104B80000F94D84D0E9416D081E0089580E00895DA
:104B90008091250690912606009731F04AE050E07A
:104BA00070E060E00D94CC6760E070E0CB010895A8
:104BB000CF93DF93EB0198DA882311F0E9DFEB0163
:104BC000CE01DF91CF910895E3DFCB010895CF931C
:104BD000DF93EB0189DA882319F0DF91CF91F4CFCD
:104BE000CE01DF91CF910895D3DF97FD0AC0D0DFCA
:104BF0006F3F71058105910509F02CF4C9DF862FFF
:104C0000089580E008958FEF0895CF93C62F6CDA52
:104C1000882311F0CF91E8CF8C2FCF910895809108
:104C2000250690912606892B39F0DEDF91E081116F
:104C300001C090E0892F089591E0FCCFCF93DF93DE
:104C4000C82FD62F51DA882319F0DF91CF91E7CF03
:104C50008C2FFCD9811101C08D2FDF91CF91089548
:104C60000F931F93CF93809125069091260600976E
:104C7000E9F0FC018F01C1912C2F2F7D81F0C5340B
:104C800011F0C536B9F7F801108270E060E00F94BA
:104C90007666F801C083CF911F910F91089570E05F
:104CA00060E0CF911F910F910D94766660E070E007
:104CB000CB01F1CFCF92DF92EF92FF926A017B019D
:104CC00013DA882329F0FF90EF90DF90CF90C8CFC0
:104CD000C701B601FF90EF90DF90CF9008954F92FB
:104CE0005F926F927F92AF92BF92CF92DF92EF92DC
:104CF000FF920F931F93CF93DF938BEDA82E82E04B
:104D0000B82E0FE712E0CBE0DAE097EDC92E99E07C
:104D1000D92EF12CF50181915F01E6D9882339F074
:104D20009FDF2B013C018091F20F882351F0F801A5
:104D300080819181A281B38188839983AA83BB8377
:104D400012C08F2DE7D8882309F463C0F8012081B1
:104D5000318142815381C301B2010F94BA716883DA
:104D600079838A839B83F3940C5F1F4F2496F4E02E
:104D7000CF0ED11C83E0F812CDCF85E4B5D98823BE
:104D800009F451C06DDF6B017C0183E0C3D8882337
:104D900071F020918B0230918C0240918D025091E4
:104DA0008E02C701B6010F94BA716B017C01C092EB
:104DB000170AD092180AE092190AF0921A0A40E0F3
:104DC00050E0BA0186E476DF20E030E0A9010F94DC
:104DD000E17318167CF444DF20E030E040E752E451
:104DE0000F949672609371027093720280937302B3
:104DF00090937402DF91CF911F910F91FF90EF90EC
:104E0000DF90CF90BF90AF907F906F905F904F906A
:104E10000895F6012081318142815381C301B2019D
:104E20000F94B9719CCF80918B0290918C02A091CC
:104E30008D02B0918E028093170A9093180AA09366
:104E4000190AB0931A0ABBCFCF92DF92EF92FF926A
:104E50000F931F93CF93DF936B017A01EC01CB5437
:104E6000DA4F28813CE0389F8001399F100D1124D2
:104E700027FF24C0FB011182108288818F5F888305
:104E800088819801280F311D87FD3A95C90120912D
:104E90008C15F6012817190629F024F088818C302A
:104EA0000CF43CC080819181049680349C4908F4C4
:104EB00075C0F60180819181049672C08881980145
:104EC000280F311D87FD3A95C90120918C152817AF
:104ED000190699F294F28881A801480F511D87FDA7
:104EE0005A95FA01EE0FFF1FE40FF51FEC5BFA4E27
:104EF000808187FFC2CF8881F801E80FF11D87FD0F
:104F0000FA95CF01EE0FFF1FE80FF91FEC5BFA4E89
:104F1000808160E08F770F94754CAFCF8081918155
:104F20002881A801420F511D27FD5A959A01FA01C7
:104F3000EE0FFF1FE20FF31FEC5BFA4E218132816F
:104F4000820F931FF7019183808388819801280F36
:104F5000311D87FD3A95F901EE0FFF1FE20FF31F98
:104F6000EC5BFA4E808187FF20C08881080F111DFD
:104F700087FD1A95F801EE0FFF1FE00FF11FEC5BA4
:104F8000FA4E808161E08F77DF91CF911F910F9171
:104F9000FF90EF90DF90CF900D94754C80E49CE9EA
:104FA000F701918380838FEF8883DF91CF911F91E9
:104FB0000F91FF90EF90DF90CF900895AF92BF9246
:104FC000CF92DF92EF92FF920F931F93CF93DF93D5
:104FD000EC015B018A01FB01199587FD16C0C82E03
:104FE000D12CF12CE12C2196F801C082D182E282F1
:104FF000F382CE01DF91CF911F910F91FF90EF903F
:10500000DF90CF90BF90AF900895982F907E903C06
:10501000A9F48F7190E0B0E0A0E06C017D0156E052
:10502000CC0CDD1CEE1CFF1C5A95D1F7CE0101966D
:10503000F50119958F73C82A2296D6CF982F907FA5
:10504000903E11F58F7090E0B0E0A0E06C017D0122
:1050500036E0CC0CDD1CEE1CFF1C3A95D1F7CE01DE
:105060000196F50119958F73C82A46E0CC0CDD1C1A
:10507000EE1CFF1C4A95D1F7CE010296F501199559
:105080008F73C82A2396B0CF982F987F903F79F5D9
:10509000877090E0B0E0A0E06C017D0186E0CC0C70
:1050A000DD1CEE1CFF1C8A95D1F7CE010196F5019F
:1050B00019958F73C82A96E0CC0CDD1CEE1CFF1CE2
:1050C0009A95D1F7CE010296F50119958F73C82AEA
:1050D00026E0CC0CDD1CEE1CFF1C2A95D1F7CE017E
:1050E0000396F50119958F73C82A24967DCF982FC2
:1050F000907C903841F4807C803869F42196CE0110
:10510000F5011995F8CF8E7F8D3F28F02196CE01BD
:10511000F5011995F8CFC12CD12C760165CF2F92CE
:105120003F924F925F926F927F928F929F92AF9237
:10513000BF92CF92DF92EF92FF920F931F93CF9384
:10514000DF93162F072F242EFC0180809180A280F0
:10515000B380C501B40120E13EE040E050E00F948F
:105160000271E22ED32EC22FD32F8CE3482E512C66
:10517000612C712CC501B401A30192010F9402713D
:10518000C62E372ECA01B901A30192010F940271F4
:10519000F62E772E222059F1C501B40120E831E521
:1051A00041E050E00F94027169017F92FF92CE01BD
:1051B00068E170E00F9478719F938F933F932F93E2
:1051C00087E897E19F938F930F931F930F94716AD2
:1051D000EDB7FEB73A960FB6F894FEBF0FBEEDBF1F
:1051E00088E0FAE0CF16D104C8F089E017C0209714
:1051F00041F53F92CF927F936F938BE797E19F9317
:105200008F930F931F930F94716A8DB79EB7089673
:105210000FB6F8949EBF0FBE8DBF85E0DF91CF9192
:105220001F910F91FF90EF90DF90CF90BF90AF90C4
:105230009F908F907F906F905F904F903F902F90B6
:105240000895C436D105A8F47F936F93DF92EF924F
:105250008FE697E19F938F930F931F930F94716A3B
:10526000EDB7FEB738960FB6F894FEBF0FBEEDBF90
:10527000D4CF7F936F93DF92EF9285E697E19F9370
:105280008F930F931F930F94716A8DB79EB70896F3
:105290000FB6F8949EBF0FBE8DBF86E0BFCF9CE0D7
:1052A000899F802D112491E0980F909350062CE057
:1052B000280F2093CF0930E02E5F3F4F4091111609
:1052C0004217130619F014F080E008952091131688
:1052D0009217D0F7662341F08E5F0F945B54809154
:1052E000CF098E5F0F945B548091CF099091111676
:1052F000891750F32091131690915006291720F327
:10530000109214168093151681E0089520914E0690
:10531000022E000C330B8217130641F080934E06C9
:105320006AED77E18DED95E10D942D5508951F936C
:10533000CF93DF931F92CDB7DEB7109152028091C9
:105340001616811105C081E0809316160F9439530B
:105350006091DF157091E01519839E012F5F3F4F1B
:105360004FE08DED95E10F9435530F90DF91CF9184
:105370001F910895CF9380914F0681114EC01092D6
:10538000141610921516109216161092E21510921D
:10539000E1151092E4151092E3151092E61581E0E4
:1053A0008093E51582E28093E7151092EC15109238
:1053B000EB15E0E0F6E18FEF819396E1EE30F9072F
:1053C000D9F7C1E0C093FD1525EA3BED3093F31505
:1053D0002093F215C093F4151092F5151092F6155E
:1053E00090E49093F7151092F81520EA30E030938E
:1053F0000F1620930E1627E132E03093E01520932C
:10540000DF1591E19093021690E19093011680933D
:1054100000160F943953C0934F06099A11988FE1E3
:105420009EE40197F1F700C00000119A8FE19EE41D
:105430000197F1F700C0000081E0809316160F94E9
:10544000395380915202843B08F484EB80935202DA
:105450006EDF81E08093510685E697E190930F150A
:1054600080930E151092111510921015CF9108957A
:10547000CF92DF92EF92FF920F931F93CF93DF9320
:10548000CDB7DEB72C970FB6F894DEBF0FBECDBFF9
:105490006F3F71058105910509F0D0F489ED95E123
:1054A0000E943A21E091E115F091E2153196849144
:1054B00090E02C960FB6F894DEBF0FBECDBFDF9103
:1054C000CF911F910F91FF90EF90DF90CF900895B3
:1054D000F0901416E09015162091510621110FC07E
:1054E00045E457E16E2D8F2D0F94EC3990E080E06C
:1054F000F80EF0921416E09215169927DACFC090A4
:10550000E115D090E2152DED35E13A8329832F2D59
:1055100030E03C832B832E2D30E03E832D83188694
:105520001F822FEF3FEF3A8729871C861B8608EDE5
:1055300010E29E012F5F3F4FAB01BC01C6010F94EB
:10554000E438B6018DED95E10F942D558F81988546
:10555000CFCFCF93DF93FC0125AD211104C021E013
:1055600025AF0F943953C091DF15D091E015E0912C
:105570000E16F0910F1682E01995E0910E16F0913B
:105580000F1681E0199530E020E044E1BE018DED79
:1055900095E10F94355320E136E147E1BE018DEDF1
:1055A00095E10F943553E0910E16F0910F1680E0BF
:1055B000DF91CF911994CF92DF92EF92FF920F93E8
:1055C0001F93CF93DF93CDB7DEB72C970FB6F89428
:1055D000DEBF0FBECDBFF0901416E09015162091DF
:1055E000510621111DC045E257E16E2D8F2D0F94FC
:1055F000EC3990E080E0F80EF0921416E092151667
:1056000099272C960FB6F894DEBF0FBECDBFDF9161
:10561000CF911F910F91FF90EF90DF90CF90089561
:10562000C090E115D090E2152DED35E13A83298344
:105630002F2D30E03C832B832E2D30E03E832D83B5
:1056400018861F827A8769871C861B8608ED10E200
:105650009E012F5F3F4F41E05FE1BC01C6010F9407
:10566000A839B6018DED95E10F942D558F81988560
:10567000C2CFE9EDF5E183AF64AF6FEF7FEFCA0111
:105680009ACFCF92DF92EF92FF920F931F93CF9317
:10569000DF93CDB7DEB72C970FB6F894DEBF0FBE01
:1056A000CDBFF0901416E0901516209151062111EF
:1056B0001DC045E057E16E2D8F2D0F94EC3990E021
:1056C00080E0F80EF0921416E092151699272C96A9
:1056D0000FB6F894DEBF0FBECDBFDF91CF911F9103
:1056E0000F91FF90EF90DF90CF900895C090E1155B
:1056F000D090E2152DED35E13A8329832F2D30E04E
:105700003C832B832E2D30E03E832D8318861F8211
:105710007A8769871C861B8608ED10E29E012F5F41
:105720003F4F44E05FE1BC01C6010F94A839B601C8
:105730008DED95E10F942D558F819885C2CF8F9275
:105740009F92AF92BF92CF92DF92EF92FF920F9310
:105750001F93CF93DF935B01C42F690141FB662741
:1057600060F99DDD882309F464C010E000E0A11415
:10577000B10439F0C5010E941FD166E0869F800107
:105780001124F12CE12CC114D10429F0C6010E948E
:105790004FD3E82EF12CC0FF21C080E890E0801BA1
:1057A000910B4AEFB70146039001479F300D11243A
:1057B000820F931F6CE070E00F948C714B01C0E876
:1057C000D0E071E0871A910897FC0AC060E270E0AF
:1057D00080E090E04DDEC81BD90BF3CFC0E8D0E0ED
:1057E000012BB9F0CE0166E070E00F947871209142
:1057F000D3093091D4094091D1095091D209062F93
:105800006091D009C5010E9434D096E0899FE001E3
:105810001124EF2829F0BE01C60133DFC81BD90BC4
:10582000C730D10530F060E270E080E090E020DE2B
:10583000F5CFDF91CF911F910F91FF90EF90DF9007
:10584000CF90BF90AF909F908F9008956FEF7FEFB4
:1058500018CF8F929F92AF92BF92CF92DF92EF922A
:10586000FF920F93CF93DF934C015B010E941FD1F6
:10587000C82EC5010E944FD3D12C23E130E079011D
:10588000E81AF108C5E2EC14FD040CF4CFE18C2F0A
:1058900090E09C012E5F3F4F409111164217130676
:1058A00011F00CF03DC00997209113162817190626
:1058B000BCF12091D3093091D4094091D109509184
:1058C000D2096091D00910921416C093151605E103
:1058D000C4010E9434D0D1E0A114B104A9F06AE35C
:1058E00070E080E090E0C4DDEC14FD04DCF4C45F03
:1058F00080911116C81740F0209113164C2F495073
:10590000550B2417150684F4DF91CF910F91FF906A
:10591000EF90DF90CF90BF90AF909F908F900895C1
:10592000D0E0DACFDD2381F38E2D880FE80EEE0C68
:10593000E0921416C093151660E270E080E090E0EB
:1059400097DDC501DF91CF910F91FF90EF90DF9030
:10595000CF90BF90AF909F908F9078CF8F929F9273
:10596000AF92BF92CF92DF92EF92FF920F931F936D
:10597000CF93DF93CDB7DEB72C970FB6F894DEBF89
:105980000FBECDBF982F862F5A017901C02E692FE7
:1059900086DC882309F48CC0C7010023A1F10E9492
:1059A0001FD1D82E8090E1159090E215809151067C
:1059B000811147C01FEF03E10D192091D3093091E8
:1059C000D4094091D1095091D2096091D009C50103
:1059D0000E9434D0DD2009F46BC0B6E08B9F5001EB
:1059E00011246AE370E080E090E042DD57E0A51604
:1059F000B10408F443C060E270E080E090E038DD7C
:105A0000A81AB90AF3CF0E944FD3D82E8090E1157F
:105A10009090E21580915106882361F2FE01339641
:105A20008AE0DF011D928A95E9F78DED95E19A8371
:105A300089830FEA10E29E012F5F3F4F44E05FE150
:105A400012C0FE0133968AE0DF011D928A95E9F7C4
:105A50008DED95E19A8389830FEA10E29E012F5F15
:105A60003F4F41E05FE1B701C4010F94A839B40191
:105A70008DED95E10F942D551F819DCF4091CF095C
:105A8000212F30E0A6E0DA9EC00111242E5F3F4FA7
:105A9000281739070CF49C0180E8821B80931416A8
:105AA00040931516CC20B9F06FEF7FEFC70183DD6F
:105AB0002C960FB6F894DEBF0FBECDBFDF91CF910D
:105AC0001F910F91FF90EF90DF90CF90BF90AF901C
:105AD0009F908F900895C701B9DEEACFE9EDF5E117
